{
  "contractName": "BlindBox",
  "abi": [
    {
      "anonymous": false,
      "inputs": [
        {
          "indexed": true,
          "internalType": "address",
          "name": "user",
          "type": "address"
        },
        {
          "indexed": false,
          "internalType": "uint256",
          "name": "rand",
          "type": "uint256"
        },
        {
          "indexed": false,
          "internalType": "string",
          "name": "result",
          "type": "string"
        }
      ],
      "name": "BoxOpened",
      "type": "event"
    },
    {
      "anonymous": false,
      "inputs": [
        {
          "indexed": true,
          "internalType": "address",
          "name": "user",
          "type": "address"
        },
        {
          "indexed": false,
          "internalType": "uint256",
          "name": "Rand",
          "type": "uint256"
        },
        {
          "indexed": false,
          "internalType": "string",
          "name": "result",
          "type": "string"
        }
      ],
      "name": "PityTriggered",
      "type": "event"
    },
    {
      "inputs": [],
      "name": "boxPrice",
      "outputs": [
        {
          "internalType": "uint256",
          "name": "",
          "type": "uint256"
        }
      ],
      "stateMutability": "view",
      "type": "function"
    },
    {
      "inputs": [
        {
          "internalType": "address",
          "name": "",
          "type": "address"
        }
      ],
      "name": "boxesUserOwned",
      "outputs": [
        {
          "internalType": "uint256",
          "name": "",
          "type": "uint256"
        }
      ],
      "stateMutability": "view",
      "type": "function"
    },
    {
      "inputs": [
        {
          "internalType": "uint256",
          "name": "",
          "type": "uint256"
        }
      ],
      "name": "rands",
      "outputs": [
        {
          "internalType": "uint256",
          "name": "",
          "type": "uint256"
        }
      ],
      "stateMutability": "view",
      "type": "function"
    },
    {
      "inputs": [
        {
          "internalType": "int256",
          "name": "",
          "type": "int256"
        }
      ],
      "name": "tokenRarity",
      "outputs": [
        {
          "internalType": "string",
          "name": "",
          "type": "string"
        }
      ],
      "stateMutability": "view",
      "type": "function"
    },
    {
      "inputs": [
        {
          "internalType": "address",
          "name": "",
          "type": "address"
        }
      ],
      "name": "userOpenBoxCount",
      "outputs": [
        {
          "internalType": "uint256",
          "name": "",
          "type": "uint256"
        }
      ],
      "stateMutability": "view",
      "type": "function"
    },
    {
      "inputs": [
        {
          "internalType": "address",
          "name": "_user",
          "type": "address"
        }
      ],
      "name": "userBoxes",
      "outputs": [
        {
          "internalType": "uint256",
          "name": "",
          "type": "uint256"
        }
      ],
      "stateMutability": "view",
      "type": "function"
    },
    {
      "inputs": [
        {
          "internalType": "uint256",
          "name": "_amount",
          "type": "uint256"
        }
      ],
      "name": "buyBox",
      "outputs": [],
      "stateMutability": "payable",
      "type": "function"
    },
    {
      "inputs": [
        {
          "internalType": "uint256",
          "name": "_amount",
          "type": "uint256"
        }
      ],
      "name": "openBox",
      "outputs": [],
      "stateMutability": "nonpayable",
      "type": "function"
    }
  ],
  "bytecode": "0x608060405267016345785d8a00006003556103e8600455601460055534801561002757600080fd5b5061115e806100376000396000f3fe60806040526004361061007b5760003560e01c8063bdfd90a71161004e578063bdfd90a71461012d578063bef1cc711461016a578063d117bfb4146101a7578063e80ac45a146101e45761007b565b80633e04934314610080578063541c53fe1461009c578063a6482858146100d9578063b1e5e2b714610104575b600080fd5b61009a60048036038101906100959190610956565b610221565b005b3480156100a857600080fd5b506100c360048036038101906100be91906109b9565b61034a565b6040516100d09190610a76565b60405180910390f35b3480156100e557600080fd5b506100ee6103ea565b6040516100fb9190610aa7565b60405180910390f35b34801561011057600080fd5b5061012b60048036038101906101269190610956565b6103f0565b005b34801561013957600080fd5b50610154600480360381019061014f9190610b20565b61082c565b6040516101619190610aa7565b60405180910390f35b34801561017657600080fd5b50610191600480360381019061018c9190610956565b610844565b60405161019e9190610aa7565b60405180910390f35b3480156101b357600080fd5b506101ce60048036038101906101c99190610b20565b610868565b6040516101db9190610aa7565b60405180910390f35b3480156101f057600080fd5b5061020b60048036038101906102069190610b20565b6108b0565b6040516102189190610aa7565b60405180910390f35b60008111610264576040517f08c379a000000000000000000000000000000000000000000000000000000000815260040161025b90610b99565b60405180910390fd5b600354816102729190610be8565b3410156102b4576040517f08c379a00000000000000000000000000000000000000000000000000000000081526004016102ab90610c76565b60405180910390fd5b610305816000803373ffffffffffffffffffffffffffffffffffffffff1673ffffffffffffffffffffffffffffffffffffffff168152602001908152602001600020546108c890919063ffffffff16565b6000803373ffffffffffffffffffffffffffffffffffffffff1673ffffffffffffffffffffffffffffffffffffffff1681526020019081526020016000208190555050565b6001602052806000526040600020600091509050805461036990610cc5565b80601f016020809104026020016040519081016040528092919081815260200182805461039590610cc5565b80156103e25780601f106103b7576101008083540402835291602001916103e2565b820191906000526020600020905b8154815290600101906020018083116103c557829003601f168201915b505050505081565b60035481565b806000803373ffffffffffffffffffffffffffffffffffffffff1673ffffffffffffffffffffffffffffffffffffffff168152602001908152602001600020541015610471576040517f08c379a000000000000000000000000000000000000000000000000000000000815260040161046890610d42565b60405180910390fd5b6104c2816000803373ffffffffffffffffffffffffffffffffffffffff1673ffffffffffffffffffffffffffffffffffffffff168152602001908152602001600020546108f490919063ffffffff16565b6000803373ffffffffffffffffffffffffffffffffffffffff1673ffffffffffffffffffffffffffffffffffffffff1681526020019081526020016000208190555060005b81811015610828576105626001600260003373ffffffffffffffffffffffffffffffffffffffff1673ffffffffffffffffffffffffffffffffffffffff168152602001908152602001600020546108c890919063ffffffff16565b600260003373ffffffffffffffffffffffffffffffffffffffff1673ffffffffffffffffffffffffffffffffffffffff1681526020019081526020016000208190555060006004544233846040516020016105bf93929190610dcb565b6040516020818303038152906040528051906020012060001c6105e29190610e37565b9050600554600260003373ffffffffffffffffffffffffffffffffffffffff1673ffffffffffffffffffffffffffffffffffffffff16815260200190815260200160002054106106c6573373ffffffffffffffffffffffffffffffffffffffff167fb6ca0e5b4bb519e8867fd94662ddbd0f8ca710a53df4328fcbfa257e1e9630a06103e76040516106749190610ef9565b60405180910390a26000600260003373ffffffffffffffffffffffffffffffffffffffff1673ffffffffffffffffffffffffffffffffffffffff16815260200190815260200160002081905550610814565b6103de8110610767573373ffffffffffffffffffffffffffffffffffffffff167fb6ca0e5b4bb519e8867fd94662ddbd0f8ca710a53df4328fcbfa257e1e9630a0826040516107159190610f27565b60405180910390a26000600260003373ffffffffffffffffffffffffffffffffffffffff1673ffffffffffffffffffffffffffffffffffffffff16815260200190815260200160002081905550610813565b61035281106107c3573373ffffffffffffffffffffffffffffffffffffffff167fb6ca0e5b4bb519e8867fd94662ddbd0f8ca710a53df4328fcbfa257e1e9630a0826040516107b69190610fa1565b60405180910390a2610812565b3373ffffffffffffffffffffffffffffffffffffffff167fb6ca0e5b4bb519e8867fd94662ddbd0f8ca710a53df4328fcbfa257e1e9630a082604051610809919061101b565b60405180910390a25b5b5b50808061082090611049565b915050610507565b5050565b60006020528060005260406000206000915090505481565b6006818154811061085457600080fd5b906000526020600020016000915090505481565b60008060008373ffffffffffffffffffffffffffffffffffffffff1673ffffffffffffffffffffffffffffffffffffffff168152602001908152602001600020549050919050565b60026020528060005260406000206000915090505481565b60008082846108d79190611091565b9050838110156108ea576108e96110c5565b5b8091505092915050565b600082821115610907576109066110c5565b5b818361091391906110f4565b905092915050565b600080fd5b6000819050919050565b61093381610920565b811461093e57600080fd5b50565b6000813590506109508161092a565b92915050565b60006020828403121561096c5761096b61091b565b5b600061097a84828501610941565b91505092915050565b6000819050919050565b61099681610983565b81146109a157600080fd5b50565b6000813590506109b38161098d565b92915050565b6000602082840312156109cf576109ce61091b565b5b60006109dd848285016109a4565b91505092915050565b600081519050919050565b600082825260208201905092915050565b60005b83811015610a20578082015181840152602081019050610a05565b60008484015250505050565b6000601f19601f8301169050919050565b6000610a48826109e6565b610a5281856109f1565b9350610a62818560208601610a02565b610a6b81610a2c565b840191505092915050565b60006020820190508181036000830152610a908184610a3d565b905092915050565b610aa181610920565b82525050565b6000602082019050610abc6000830184610a98565b92915050565b600073ffffffffffffffffffffffffffffffffffffffff82169050919050565b6000610aed82610ac2565b9050919050565b610afd81610ae2565b8114610b0857600080fd5b50565b600081359050610b1a81610af4565b92915050565b600060208284031215610b3657610b3561091b565b5b6000610b4484828501610b0b565b91505092915050565b7f416d6f756e74206d7573742062652067726561746572207468616e2030210000600082015250565b6000610b83601e836109f1565b9150610b8e82610b4d565b602082019050919050565b60006020820190508181036000830152610bb281610b76565b9050919050565b7f4e487b7100000000000000000000000000000000000000000000000000000000600052601160045260246000fd5b6000610bf382610920565b9150610bfe83610920565b9250828202610c0c81610920565b91508282048414831517610c2357610c22610bb9565b5b5092915050565b7f496e76616c696420616d6f756e74000000000000000000000000000000000000600082015250565b6000610c60600e836109f1565b9150610c6b82610c2a565b602082019050919050565b60006020820190508181036000830152610c8f81610c53565b9050919050565b7f4e487b7100000000000000000000000000000000000000000000000000000000600052602260045260246000fd5b60006002820490506001821680610cdd57607f821691505b602082108103610cf057610cef610c96565b5b50919050565b7f596f7520646f6e2774206861766520656e6f75676820626f7865730000000000600082015250565b6000610d2c601b836109f1565b9150610d3782610cf6565b602082019050919050565b60006020820190508181036000830152610d5b81610d1f565b9050919050565b6000819050919050565b610d7d610d7882610920565b610d62565b82525050565b60008160601b9050919050565b6000610d9b82610d83565b9050919050565b6000610dad82610d90565b9050919050565b610dc5610dc082610ae2565b610da2565b82525050565b6000610dd78286610d6c565b602082019150610de78285610db4565b601482019150610df78284610d6c565b602082019150819050949350505050565b7f4e487b7100000000000000000000000000000000000000000000000000000000600052601260045260246000fd5b6000610e4282610920565b9150610e4d83610920565b925082610e5d57610e5c610e08565b5b828206905092915050565b6000819050919050565b6000819050919050565b6000610e97610e92610e8d84610e68565b610e72565b610920565b9050919050565b610ea781610e7c565b82525050565b7f4c6567656e64617279204974656d000000000000000000000000000000000000600082015250565b6000610ee3600e836109f1565b9150610eee82610ead565b602082019050919050565b6000604082019050610f0e6000830184610e9e565b8181036020830152610f1f81610ed6565b905092915050565b6000604082019050610f3c6000830184610a98565b8181036020830152610f4d81610ed6565b905092915050565b7f52617265204974656d0000000000000000000000000000000000000000000000600082015250565b6000610f8b6009836109f1565b9150610f9682610f55565b602082019050919050565b6000604082019050610fb66000830184610a98565b8181036020830152610fc781610f7e565b905092915050565b7f436f6d6d6f6e204974656d000000000000000000000000000000000000000000600082015250565b6000611005600b836109f1565b915061101082610fcf565b602082019050919050565b60006040820190506110306000830184610a98565b818103602083015261104181610ff8565b905092915050565b600061105482610920565b91507fffffffffffffffffffffffffffffffffffffffffffffffffffffffffffffffff820361108657611085610bb9565b5b600182019050919050565b600061109c82610920565b91506110a783610920565b92508282019050808211156110bf576110be610bb9565b5b92915050565b7f4e487b7100000000000000000000000000000000000000000000000000000000600052600160045260246000fd5b60006110ff82610920565b915061110a83610920565b925082820390508181111561112257611121610bb9565b5b9291505056fea2646970667358221220c08ee5d5eb587d7d0bcd16ec199c51e8922fdd0b73ec159a93d0991636d16a4b64736f6c63430008150033",
  "immutableReferences": {},
  "source": "// SPDX-License-Identifier: GPL-3.0\r\npragma solidity ^0.8.13;\r\n\r\nimport \"./safemath.sol\";\r\n\r\n\r\ncontract BlindBox{\r\n    using SafeMath for *;\r\n    //\r\n    mapping(address => uint) public boxesUserOwned;\r\n    //\r\n    mapping(int => string) public tokenRarity;\r\n    //\r\n    mapping(address => uint) public userOpenBoxCount;\r\n    //\r\n    uint256 public boxPrice = 0.1 ether;\r\n    //\r\n    uint Modulus = 1000;\r\n    //\r\n    uint PityCount = 20;\r\n    //\r\n    uint[] public rands;\r\n    //  \r\n    event PityTriggered(address indexed user,uint Rand,string result);\r\n    //\r\n    event BoxOpened(address indexed user,uint rand, string result);\r\n\r\n    function userBoxes(address _user) public view returns (uint) {\r\n        return boxesUserOwned[_user];\r\n    }\r\n\r\n    function buyBox(uint _amount) public payable{\r\n        require(_amount > 0 , \"Amount must be greater than 0!\");\r\n        require(msg.value >= _amount * boxPrice, \"Invalid amount\");\r\n        boxesUserOwned[msg.sender] = boxesUserOwned[msg.sender].add(_amount);\r\n    }\r\n\r\n    function openBox(uint _amount) public {\r\n        require(boxesUserOwned[msg.sender] >= _amount, \"You don't have enough boxes\");\r\n        boxesUserOwned[msg.sender] = boxesUserOwned[msg.sender].sub(_amount);\r\n        //\r\n        for(uint i = 0; i < _amount; i++) {\r\n            userOpenBoxCount[msg.sender] = userOpenBoxCount[msg.sender].add(1);\r\n            uint rand = uint(keccak256(abi.encodePacked(block.timestamp, msg.sender, i))) % Modulus;\r\n            if(userOpenBoxCount[msg.sender] >= PityCount){\r\n                emit BoxOpened(msg.sender,999,\"Legendary Item\");\r\n                userOpenBoxCount[msg.sender] = 0;\r\n            }\r\n            else if(rand >= 990) {\r\n                emit BoxOpened(msg.sender,rand, \"Legendary Item\");\r\n                userOpenBoxCount[msg.sender] = 0;\r\n            } else if(rand >= 850){\r\n                emit BoxOpened(msg.sender,rand, \"Rare Item\");\r\n            } else {\r\n                emit BoxOpened(msg.sender,rand, \"Common Item\");\r\n            }\r\n        }\r\n    }\r\n}",
  "sourcePath": "E:\\blind-box-dapp\\contracts\\BlindBox.sol",
  "compiler": {
    "name": "solc",
    "version": "0.8.21+commit.d9974bed.Emscripten.clang"
  },
  "schemaVersion": "3.4.16",
  "updatedAt": "2025-03-25T05:59:39.809Z",
  "devdoc": {
    "kind": "dev",
    "methods": {},
    "version": 1
  },
  "userdoc": {
    "kind": "user",
    "methods": {},
    "version": 1
  }
}